:100000000C9446000C9465000C9465000C946500FB
:100010000C9465000C9465000C9465000C946500CC
:100020000C9465000C9465000C9465000C946500BC
:100030000C9465000C947D020C9465000C94650092
:100040000C9465000C9465000C9465000C9465009C
:100050000C9465000C9465000C9465000C9465008C
:100060000C9465000C9465000C9465000C9465007C
:100070000C9465000C9465000C9465000C9465006C
:100080000C9465000C9465000C94650011241FBE4F
:10009000CFEFD0E4DEBFCDBF11E0A0E0B1E0ECEEE9
:1000A000F5E000E00BBF02C007900D92A831B10748
:1000B000D9F721E0A8E1B1E001C01D92AA32B20750
:1000C000E1F70E94CC020C94F4020C940000CF9350
:1000D000C82F8A3019F48DE00E9467008091C0001B
:1000E00085FFFCCFC093C60080E090E0CF910895DB
:1000F000442349F021E030E002C0220F331F6A950B
:10010000E2F7822B089521E030E002C0220F331F76
:100110006A95E2F720958223089521E030E002C03D
:10012000220F331F6A95E2F78223089540E064E0CE
:100130008FEF0E94780082B9000080B160E0809566
:100140000E948D00811180C080B161E080950E9485
:100150008D0081117BC080B162E080950E948D008E
:10016000811176C080B163E080950E948D0081117D
:1001700071C040E065E08FEF0E94780082B9000016
:1001800080B160E080950E948D00811165C080B1D2
:1001900061E080950E948D00811160C080B162E0B5
:1001A00080950E948D0081115BC080B163E08095D5
:1001B0000E948D00811156C040E066E08FEF0E94E2
:1001C000780082B9000080B160E080950E948D00C7
:1001D00081114AC080B161E080950E948D0081113B
:1001E00045C080B162E080950E948D00811140C0C1
:1001F00080B163E080950E948D0081113BC040E09A
:1002000067E08FEF0E94780082B9000080B160E063
:1002100080950E948D0081112FC080B161E0809592
:100220000E948D0081112AC080B162E080950E94F9
:100230008D00811125C080B163E080950E948D0002
:100240008823F9F084E4089581E3089584E3089510
:1002500087E308958AE2089582E3089585E3089587
:1002600088E3089580E3089583E3089586E308957D
:1002700089E3089583E2089581E4089582E408956E
:1002800083E408958BE0809381008DE790E0909364
:1002900089008093880082E080936F00109285002F
:1002A000109284008091020190910301A0910401B9
:1002B000B09105018093180190931901A0931A0140
:1002C000B0931B018FB780688FBF08951092810093
:1002D0000895609302017093030180930401909349
:1002E0000501609318017093190180931A0190938E
:1002F0001B01089540E050E00CC000002F5F3F4F0D
:1003000002C020E030E0273063E03607B4F34F5FEF
:100310005F4F48175907ACF308959BB19F7B9BB97A
:1003200088B98BB180688BB900008BB18F778BB99E
:1003300082E090E00E947A01089581E00E948D01A0
:100340000895813120F481580E948D0108958155CE
:100350000E948D01089584E690E00E947A0188E36E
:100360000E948D0186E00E948D018FE00E948D0128
:1003700081E00E948D018AE090E00E947A01089558
:100380009BB190649BB988B98BB180688BB9000030
:100390008BB18F778BB981E090E00E947A0108954C
:1003A000EF92FF920F931F93CF93DF93182FEB01E0
:1003B0000E949D010EC001E0010F812F0E94A1014A
:1003C0007E018FEFE81AF80A88810E94C001102F81
:1003D000E70188818111EFCFDF91CF911F910F91BC
:1003E000FF90EF900895CF93DF93EC01813091055A
:1003F00031F08230910541F0892B31F403C0C2E025
:10040000D0E002C0C1E0D0E0C130D10521F0C2305F
:10041000D10521F01AC010921D0117C00E9496004C
:10042000882399F00E94960090911D01891769F028
:100430000E94960080931D010E949D0181E00E9410
:10044000A10180911D010E94C001CE01DF91CF91D9
:100450000895EF92FF921F93CF93DF9310E044C073
:10046000C12FD0E0FE01EE0FFF1FE050FF4FE080F4
:10047000F180D70116964D915D916D917C91199700
:1004800012968D919D910D90BC91A02D4817590702
:100490006A077B07B8F0D7011A96ED91FC911B977C
:1004A0008D919C910995F70191838083FE01EE0F58
:1004B000FF1FE050FF4F0190F081E02D1682178260
:1004C00010861186CC0FDD1FC050DF4FE881F98107
:1004D00086819781A085B185C296A11DB11D8683B5
:1004E0009783A087B1871F5F112309F4B9CFDF91EC
:1004F000CF911F91FF90EF9008951F920F920FB62A
:100500000F9211240BB60F922F933F934F935F934B
:100510006F937F938F939F93AF93BF93EF93FF93CB
:100520008091180190911901A0911A01B0911B01BD
:100530000197A109B1098093180190931901A09323
:100540001A01B0931B01892B8A2B8B2B91F40E94EB
:1005500029028091020190910301A0910401B091C0
:1005600005018093180190931901A0931A01B0938B
:100570001B01FF91EF91BF91AF919F918F917F915F
:100580006F915F914F913F912F910F900BBE0F9004
:100590000FBE0F901F90189580EF81B98FE082B940
:1005A0008FEF87B918B88AB91BB80E94AB0162E314
:1005B00070E080E090E00E9469010E944201EEE15B
:1005C000F1E01182108282E390E0A0E0B0E082834B
:1005D0009383A483B58386839783A087B18783EFB2
:0C05E00091E093878287FFCFF894FFCF53
:1005EC001E01010000000000000200000000670076
:0805FC000000000032000000C5
:00000001FF
