:100000000C9446000C945D000C945D000C945D0013
:100010000C945D000C945D000C945D000C945D00EC
:100020000C945D000C945D000C945D000C945D00DC
:100030000C945D000C945D000C945D000C945D00CC
:100040000C945D000C945D000C945D000C945D00BC
:100050000C945D000C945D000C945D000C945D00AC
:100060000C945D000C945D000C945D000C945D009C
:100070000C945D000C945D000C945D000C945D008C
:100080000C945D000C945D000C945D0011241FBE67
:10009000CFEFD0E4DEBFCDBF11E0A0E0B1E0EAE5F4
:1000A000F1E000E00BBF02C007900D92AE30B10747
:1000B000D9F70E9471000C949B000C940000CF9320
:1000C000C82F8A3051F09091C00095FFFCCFC093AB
:1000D000C60090E080E0CF9108958DE00E945F001F
:1000E000F2CF11B88FEF82B987B918B801C018B82C
:1000F000E0B1E031E8F7F0E0E356FF4F0C949200F6
:1001000081E088B9F5CF83E088B9F2CF87E088B97C
:10011000EFCF8FE088B9ECCF8FE188B9E9CF8FE3DB
:1001200088B9E6CFEE0FFF1F0024001C0BBE07901E
:10013000F691E02D0994F894FFCF770080008000BD
:1001400083008300860086008900890089008C0076
:0A0150008C008C008F008F008F00E0
:0E015A0000000002000000005F000000000036
:00000001FF
