:100000000C944D000C946C000C946C000C946C00DF
:100010000C946C000C946C000C946C000C946C00B0
:100020000C946C000C946C000C946C000C946C00A0
:100030000C946C000C94AA000C946C000C946C0052
:100040000C946C000C946C000C946C000C946C0080
:100050000C946C000C946C000C946C000C946C0070
:100060000C946C000C946C000C946C000C946C0060
:100070000C946C000C946C000C946C000C946C0050
:100080000C946C000C946C000C946C0016011D0117
:100090002D013D014D015D016D0111241FBECFEF0A
:1000A000D0E4DEBFCDBF11E0A0E0B1E0EAE6F3E0CE
:1000B00000E00BBF02C007900D92A231B107D9F743
:1000C00021E0A2E1B1E001C01D92A931B207E1F740
:1000D0000E9490010C94B3010C940000CF93C82FA0
:1000E0008A3019F48DE00E946E009091C00095FF57
:1000F000FCCFC093C60080E090E0CF9108958BE0E4
:10010000809381008DE790E0909389008093880030
:1001100082E080936F00109285001092840080919D
:100120000E0190910F01A0911001B09111018093E7
:10013000120190931301A0931401B09315018FB78E
:1001400080688FBF089510928100089581E08093A8
:10015000160108951F920F920FB60F9211240BB63D
:100160000F922F933F934F935F936F937F938F9350
:100170009F93AF93BF93EF93FF9380911201909160
:100180001301A0911401B09115010197A109B109C2
:100190008093120190931301A0931401B093150161
:1001A000892B8A2B8B2B91F40E94A60080910E0143
:1001B00090910F01A0911001B09111018093120153
:1001C00090931301A0931401B0931501FF91EF9147
:1001D000BF91AF919F918F917F916F915F914F915F
:1001E0003F912F910F900BBE0F900FBE0F901F905D
:1001F000189560930E0170930F01809310019093F6
:100200001101609312017093130180931401909374
:1002100015010895E0911701F0911801E730F105FB
:1002200008F06AC0EA5BFF4F0C94AA0181E090E0FD
:1002300090931801809317015FC0009907C084E074
:1002400090E0909318018093170156C082E090E0EF
:1002500090931801809317014FC0009907C084E064
:1002600090E0909318018093170146C083E090E0DE
:1002700090931801809317013FC0009907C084E054
:1002800090E0909318018093170136C081E090E0D0
:1002900090931801809317012FC0009907C084E044
:1002A00090E0909318018093170126C085E090E0BC
:1002B00090931801809317011FC0009907C086E032
:1002C00090E0909318018093170116C085E090E0AC
:1002D00090931801809317010FC0009907C086E022
:1002E00090E0909318018093170106C081E090E0A0
:1002F0009093180180931701809117019091180134
:100300008230910539F018F0039739F0089581E0B3
:1003100085B9089582E085B9089584E085B9089586
:1003200011B88FEF82B984B915B868EC70E080E03D
:1003300090E00E94F9000E947F0010921801109234
:1003400017010E940A01809116018823E1F310929F
:100350001601F7CFEE0FFF1F0024001C0BBE079005
:0A036000F691E02D0994F894FFCF08
:10036A0000000002000000006E0000000000010012
:02037A00000081
:00000001FF
