:100000000C9446000C9465000C9465000C946500FB
:100010000C9465000C9465000C9465000C946500CC
:100020000C9465000C9465000C9465000C946500BC
:100030000C9465000C94BC020C9465000C94650053
:100040000C9465000C9465000C9465000C9465009C
:100050000C9465000C9465000C9465000C9465008C
:100060000C9465000C9465000C9465000C9465007C
:100070000C9465000C9465000C9465000C9465006C
:100080000C9465000C9465000C94650011241FBE4F
:10009000CFEFD0E4DEBFCDBF11E0A0E0B1E0E6EEEF
:1000A000F6E000E00BBF02C007900D92AA31B10745
:1000B000D9F721E0AAE1B1E001C01D92AC36B20748
:1000C000E1F70E940B030C9471030C940000CF9392
:1000D000C82F8A3019F48DE00E9467008091C0001B
:1000E00085FFFCCFC093C60080E090E0CF910895DB
:1000F0008230910511F134F4009759F08130910567
:10010000A9F047C083309105F9F08430910519F1C9
:1001100040C0009B02C001993CC0009902C00199F7
:1001200021C0009B36C0019B20C033C0009920C075
:10013000019921C080E090E02CC000991FC0019976
:1001400028C080E090E025C0009B1BC0019B1CC024
:1001500080E090E01EC0009B1AC0019B1AC080E0A6
:1001600090E017C081E090E014C083E090E011C0FF
:1001700080E090E00EC082E090E00BC080E090E074
:1001800008C080E090E005C084E090E002C080E01C
:1001900090E08130910521F083309105B1F0089510
:1001A00040910001509101016091020170910301A1
:1001B0004F5F5F4F6F4F7F4F40930001509301019E
:1001C00060930201709303010895409100015091E2
:1001D00001016091020170910301415051096109CF
:1001E00071094093000150930101609302017093E3
:1001F0000301423051056105710560F441E050E0B2
:1002000060E070E0409300015093010160930201AF
:100210007093030108950F931F938130910509F4A2
:1002200044C08230910541F0009709F085C0029BDF
:1002300083C082E090E080C0029B16C000911A014A
:1002400010911B0120911C0130911D014091000172
:100250005091010160910201709103014017510713
:100260006207730708F05AC0029B5BC000911A0135
:1002700010911B0120911C0130911D014091000142
:1002800050910101609102017091030140175107E3
:100290006207730708F048C010921A0110921B0100
:1002A00010921C0110921D0147C0029B15C00091C5
:1002B0001A0110911B0120911C0130911D014091E8
:1002C00000015091010160910201709103014017FA
:1002D00051076207730780F5029B29C040911A01FC
:1002E00050911B0160911C0170911D0180910001D2
:1002F00090910101A0910201B0910301841795072B
:10030000A607B707B8F410921A0110921B011092B9
:100310001C0110921D0182E090E00EC081E090E08F
:100320000BC080E090E008C080E090E005C080E075
:1003300090E002C080E090E081309105D9F08230F9
:10034000910571F540911A0150911B0160911C01BA
:1003500070911D014F5F5F4F6F4F7F4F40931A01A8
:1003600050931B0160931C0170931D0120E12093A9
:10037000670116C040911A0150911B0160911C0148
:1003800070911D014F5F5F4F6F4F7F4F40931A0178
:1003900050931B0160931C0170931D011092670123
:1003A0001F910F9108958130910559F01CF4009729
:1003B00071F00FC08230910539F08330910539F02A
:1003C00008C082E090E005C083E090E002C081E0D8
:1003D00090E08230910561F01CF499232CF408958B
:1003E0008330910549F0089521E020936301089539
:1003F00022E020936301089524E02093630108958F
:100400008130910531F08230910531F0009731F45F
:1004100003C082E090E002C081E090E099236CF09C
:100420008230910524F08230910521F008951092D8
:100430006601089528E0209366010895009749F425
:100440003091670120916301232B30916601232BAA
:1004500025B908958BE0809381008DE790E090931B
:1004600089008093880082E080936F00109285005D
:10047000109284008091080190910901A0910A01D5
:10048000B0910B0180931E0190931F01A093200156
:10049000B09321018FB780688FBF089510928100BB
:1004A0000895609308017093090180930A01909365
:1004B0000B0160931E0170931F01809320019093A4
:1004C00021010895EF92FF921F93CF93DF9310E0E5
:1004D0004AC0C12FD0E0FE01EE0FFF1FEC0FFD1F41
:1004E000EE0FFF1FEE0FFF1FED5DFE4F46815781A0
:1004F0006085718582819381A481B58148175907F0
:100500006A077B0778F07F01DF010284F385E02D25
:100510008D919C910995F7019183808316821782B2
:1005200010861186CE01880F991FFC01EC0FFD1F6C
:10053000EE0FFF1FEE0FFF1FED5DFE4F468157814F
:10054000608571858091040190910501A09106015B
:10055000B0910701840F951FA61FB71F868397834D
:10056000A087B1871F5F153008F4B3CFDF91CF911B
:100570001F91FF90EF9008951F920F920FB60F9268
:1005800011240BB60F922F933F934F935F936F936A
:100590007F938F939F93AF93BF93EF93FF9380913C
:1005A0001E0190911F01A0912001B091210101979E
:1005B000A109B10980931E0190931F01A09320010E
:1005C000B0932101892B8A2B8B2B91F40E9462021C
:1005D0008091080190910901A0910A01B0910B014D
:1005E00080931E0190931F01A0932001B0932101DD
:1005F000FF91EF91BF91AF919F918F917F916F91FB
:100600005F914F913F912F910F900BBE0F900FBEB6
:100610000F901F9018958FEF84B915B811B882B953
:10062000E3E2F1E011AA10AA81E090E0A0E0B0E0DE
:1006300082AB93ABA4ABB5AB86AB97ABA0AFB1AF7E
:1006400028E730E033AF22AF15A214A286A397A308
:10065000A0A7B1A782A793A7A4A7B5A72BE031E0D5
:1006600037A726A7118210824CE251E060E070E0CB
:10067000428353836483758346835783608771877E
:1006800023ED31E0338722871586148648EE53E048
:1006900060E070E046875787608B718B428B538B8D
:1006A000648B758B20E032E0378B268B118E108E99
:1006B000828F938FA48FB58F868F978FA0A3B1A3BE
:1006C0008EE192E093A382A36091040170910501F1
:1006D00080910601909107010E9451020E942A0216
:0606E000FFCFF894FFCFEC
:1006E60002000000010000000100000000000002FE
:0A06F6000000000067000000000093
:00000001FF
