:100000000C9446000C9465000C9465000C946500FB
:100010000C9465000C9465000C9465000C946500CC
:100020000C9465000C9465000C9465000C946500BC
:100030000C9465000C9465000C9465000C946500AC
:100040000C9465000C9465000C9465000C9465009C
:100050000C9465000C9465000C9465000C9465008C
:100060000C9465000C9465000C9465000C9465007C
:100070000C9465000C9465000C9465000C9465006C
:100080000C9465000C9465000C94650011241FBE4F
:10009000CFEFD0E4DEBFCDBF11E0A0E0B1E0EEE8ED
:1000A000F2E000E00BBF02C007900D92AE30B10746
:1000B000D9F721E0AEE0B1E001C01D92A231B20754
:1000C000E1F70E9435010C9445010C940000CF9398
:1000D000C82F8A3019F48DE00E9467009091C0000B
:1000E00095FFFCCFC093C60080E090E0CF910895CB
:1000F00080910E0190910F018230910509F445C065
:1001000028F4009759F00197D9F094C083309105F5
:1001100009F45EC0049709F480C08CC0029B0BC038
:10012000009909C0019907C081E090E090930F0108
:1001300080930E017FC010920F0110920E017AC0C1
:1001400002990BC0009909C0019907C082E090E0B4
:1001500090930F0180930E016DC0029B09C000991E
:1001600002C0019B05C010920F0110920E0162C0E7
:10017000029B60C000995EC001995CC081E090E084
:1001800090930F0180930E0155C0019B0BC0029903
:1001900009C0009907C083E090E090930F0180931D
:1001A0000E0148C0029902C0009B05C010920F01C9
:1001B00010920E013FC002993DC000993BC00199C9
:1001C00039C082E090E090930F0180930E0132C01D
:1001D00001990BC0029909C0009907C084E090E022
:1001E00090930F0180930E0125C0019B09C00299D5
:1001F00002C0009B05C010920F0110920E011AC0A0
:10020000019B18C0029916C0009914C083E090E0C9
:1002100090930F0180930E010DC0079B05C01092B3
:100220000F0110920E0106C084E090E090930F0140
:1002300080930E0180910E0190910F018430910501
:1002400018F0049731F00CC01092110110921001B7
:10025000089581E090E0909311018093100108953A
:100260001092110110921001089511B88FEF82B908
:1002700084B915B8109211011092100110920F015B
:0E02800010920E010E947800FDCFF894FFCF7F
:0E028E000000000200000000670000000000F9
:00000001FF
