:100000000C948B000C94A2000C94A2000C94A200FF
:100010000C94A2000C94A2000C94A2000C94A200D8
:100020000C94A2000C94A2000C94A2000C94A200C8
:100030000C94A2000C94A2000C94A2000C94A200B8
:100040000C94A2000C94A2000C94A2000C94A200A8
:100050000C94A2000C94A2000C94A2000C94A20098
:100060000C94A2000C94A2000C94A2000C94A20088
:100070000C94A2000C94A2000C94A2000C94A20078
:100080000C94A2000C94A2000C94A2009101C30154
:10009000C301C301C301C301C301C301C301C30140
:1000A000C301C301C301C301C301C301C301C30130
:1000B000C301C301C301C301C301C301C301C30120
:1000C000C301C301C301C301C301C301C301C30110
:1000D000C301C001C301C301C301C301C301C30103
:1000E000BB01C301C301C301C301C301BE0194012C
:1000F00097019A019D01A001A301A601A901AC01EC
:10010000C301C301C301C301C301C301C301AF01E3
:10011000B201B501B80111241FBECFEFD0E4DEBF9C
:10012000CDBF11E0A0E0B1E0E2EAF3E000E00BBFF8
:1001300002C007900D92AE30B107D9F70E947F013F
:100140000C94CF010C940000CF93C82F8A3019F47F
:100150008DE00E94A4008091C00085FFFCCFC09379
:10016000C60080E090E0CF910895442349F021E05B
:1001700030E002C0220F331F6A95E2F7822B089508
:1001800021E030E002C0220F331F6A95E2F720958C
:100190008223089521E030E002C0220F331F6A95C8
:1001A000E2F78223089540E064E08FEF0E94B500FB
:1001B00088B9000086B160E080950E94CA00811174
:1001C00080C086B161E080950E94CA0081117BC029
:1001D00086B162E080950E94CA00811176C086B126
:1001E00063E080950E94CA00811171C040E065E023
:1001F0008FEF0E94B50088B9000086B160E080955D
:100200000E94CA00811165C086B161E080950E949C
:10021000CA00811160C086B162E080950E94CA0068
:1002200081115BC086B163E080950E94CA00811194
:1002300056C040E066E08FEF0E94B50088B900002C
:1002400086B160E080950E94CA0081114AC086B1E3
:1002500061E080950E94CA00811145C086B162E0CC
:1002600080950E94CA00811140C086B163E08095EC
:100270000E94CA0081113BC040E067E08FEF0E94FE
:10028000B50088B9000086B160E080950E94CA0080
:1002900081112FC086B161E080950E94CA00811152
:1002A0002AC086B162E080950E94CA00811125C0F3
:1002B00086B163E080950E94CA008823F9F084E447
:1002C000089581E3089584E3089587E308958AE219
:1002D000089582E3089585E3089588E3089580E30F
:1002E000089583E3089586E3089589E3089583E2FA
:1002F000089581E4089582E4089583E408958FEFDA
:1003000084B915B880EF87B98FE088B90E94D3000F
:1003100090E085349105B8F5FC01EA5BFF4F0C9441
:10032000C6018FE185B9F2CF81E085B9EFCF82E0D8
:1003300085B9ECCF83E085B9E9CF84E085B9E6CF14
:1003400085E085B9E3CF86E085B9E0CF87E085B960
:10035000DDCF88E085B9DACF89E085B9D7CF8AE0EB
:1003600085B9D4CF8BE085B9D1CF8CE085B9CECF1C
:100370008DE085B9CBCF8EE085B9C8CF15B8C6CF93
:100380008FE085B9C3CF8BE185B9C0CFEE0FFF1FDA
:100390000024001C0BBE0790F691E02D0994F89400
:0203A000FFCF8D
:0E03A2000000000200000000A40000000000A7
:00000001FF
