:100000000C9446000C9465000C9465000C946500FB
:100010000C9465000C9465000C9465000C946500CC
:100020000C9465000C9465000C9465000C946500BC
:100030000C9465000C94D9030C9465000C94650035
:100040000C9465000C9465000C9465000C9465009C
:100050000C9465000C9465000C9465000C9465008C
:100060000C9465000C9465000C9465000C9465007C
:100070000C9465000C9465000C9465000C9465006C
:100080000C9465000C9465000C94650011241FBE4F
:10009000CFEFD0E4DEBFCDBF11E0A0E0B1E0E6E2FB
:1000A000F9E000E00BBF02C007900D92A238B10743
:1000B000D9F721E0A2E8B1E001C01D92A13DB2074D
:1000C000E1F70E9428040C9491040C940000CF9353
:1000D000C82F8A3019F48DE00E9467008091C0001B
:1000E00085FFFCCFC093C60080E090E0CF910895DB
:1000F00082309105F1F034F4009759F08130910588
:1001000089F043C083309105D9F084309105F9F02E
:100110003CC0009902C0019921C0009B36C0019BE0
:1001200020C033C0009920C0019921C080E090E038
:100130002CC000991FC0019928C080E090E025C024
:10014000009B1BC0019B1CC080E090E01EC0009B78
:100150001AC0019B1AC080E090E017C081E090E0D7
:1001600014C083E090E011C080E090E00EC082E017
:1001700090E00BC080E090E008C080E090E005C017
:1001800084E090E002C080E090E08130910521F0B1
:100190008330910529F0089521E02093B601089558
:1001A00021E12093B601089582309105D1F034F415
:1001B000009759F08130910589F025C08330910571
:1001C000A9F084309105A9F01EC020B1269526958E
:1001D00031E02327822F817090E015C002990EC074
:1001E00012C0029910C083E090E00DC0029909C0CE
:1001F0000AC0029908C081E090E005C082E090E06A
:1002000002C084E090E08130910561F08330910577
:1002100071F0009791F421E030E03093B801209321
:10022000B70108951092B8011092B701089521E026
:1002300030E03093B8012093B7010895442349F08A
:1002400021E030E002C0220F331F6A95E2F7822BD3
:10025000089521E030E002C0220F331F6A95E2F7D3
:1002600020958223089521E030E002C0220F331F41
:100270006A95E2F78223089540E064E08FEF0E94E0
:100280001E0182B9000080B160E080950E943301B8
:10029000811180C080B161E080950E94330181119D
:1002A0007BC080B162E080950E943301811176C0ED
:1002B00080B163E080950E943301811171C040E0FC
:1002C00065E08FEF0E941E0182B9000080B160E0FE
:1002D00080950E943301811165C080B161E08095F5
:1002E0000E943301811160C080B162E080950E945C
:1002F000330181115BC080B163E080950E943301BE
:10030000811156C040E066E08FEF0E941E0182B965
:10031000000080B160E080950E94330181114AC0E5
:1003200080B161E080950E943301811145C080B1A8
:1003300062E080950E943301811140C080B163E08A
:1003400080950E94330181113BC040E067E08FEF50
:100350000E941E0182B9000080B160E080950E9479
:10036000330181112FC080B161E080950E9433017B
:1003700081112AC080B162E080950E943301811111
:1003800025C080B163E080950E9433018823F9F095
:1003900084E4089581E3089584E3089587E308954C
:1003A0008AE2089582E3089585E3089588E3089535
:1003B00080E3089583E3089586E3089589E308952B
:1003C00083E2089581E4089582E4089583E4089522
:1003D0008BE0809381008DE790E09093890080937B
:1003E000880082E080936F00109285001092840054
:1003F0008091080190910901A0910A01B0910B012F
:100400008093820190938301A0938401B09385012E
:100410008FB780688FBF0895109281000895609310
:1004200008017093090180930A0190930B01609376
:1004300082017093830180938401909385010895D4
:1004400040E050E00CC000002F5F3F4F02C020E0B2
:1004500030E0273063E03607B4F34F5F5F4F481753
:100460005907ACF308959BB19F7B9BB988B98BB1B9
:1004700080688BB900008BB18F778BB982E090E0F8
:100480000E942002089581E00E9433020895813184
:1004900020F481580E943302089581550E9433024E
:1004A000089584E690E00E94200288E30E943302CF
:1004B00086E00E9433028FE00E94330281E00E94B6
:1004C00033028AE090E00E94200208959BB190647C
:1004D0009BB988B98BB180688BB900008BB18F77DD
:1004E0008BB981E090E00E9420020895EF92FF9284
:1004F0000F931F93CF93DF93182FEB010E944302BA
:100500000EC001E0010F812F0E9447027E018FEF94
:10051000E81AF80A88810E946602102FE701888194
:100520008111EFCFDF91CF911F910F91FF90EF904D
:100530000895EF92FF920F931F93CF93DF937C0167
:1005400082E0E816F104C9F044F4E114F10469F121
:1005500081E0E816F10451F041C083E0E816F104AF
:10056000D9F084E0E816F104D1F038C08091B701E9
:100570009091B8010197E9F431C08091B6018130C2
:1005800021F4909100019332C9F0813139F58091C5
:100590000101833219F518C002991CC01FC00299CD
:1005A0001DC0EE24E394F12C19C0EE24E394F12C49
:1005B00015C06894EE24E1F8F12C10C00F2EF3E082
:1005C000EF2EF12CF02D0AC00F2EF3E0EF2EF12CC0
:1005D000F02D04C06894EE24E2F8F12C82E0E816D5
:1005E000F10431F183E0E816F10409F479C081E007
:1005F000E816F10409F081C00E94430281E0809373
:10060000B6011092A9010E94470281E1E6E6F1E0FD
:10061000A8E9B1E001900D928A95E1F781E1E6E663
:10062000F1E0A7E8B1E001900D928A95E1F765C08D
:100630008091B7019091B801892BD1F048C0D1E0E9
:10064000DC0F8D2F0E9447020C2F10E0F801E856B6
:10065000FE4F80810E94660281E18C0F0E9447025A
:10066000F801E957FE4F80810E946602CD2F01C03C
:10067000C0E0C03120F38091B6010E944702C091D2
:10068000A901C33210F54FE050E069E971E088E953
:1006900091E00E9476040C2F10E0F801E25CFE4F1E
:1006A00080818093A7014FE050E068E871E087E81F
:1006B00091E00E947604F801E65EFE4F808180930F
:1006C0009601CF5FC093A90102C01092A901809149
:1006D00087018093010180919801809300010DC0F2
:1006E00081E090E09093B8018093B7010E944302AB
:1006F00067E771E081E00E947602C701DF91CF9148
:100700001F910F91FF90EF900895EF92FF921F932A
:10071000CF93DF9310E044C0C12FD0E0FE01EE0F75
:10072000FF1FEE5FFE4FE080F180D70116964D91DE
:100730005D916D917C91199712968D919D910D907F
:10074000BC91A02D481759076A077B07B8F0D7015D
:100750001A96ED91FC911B978D919C910995F7014B
:1007600091838083FE01EE0FFF1FEE5FFE4F01902D
:10077000F081E02D1682178210861186CC0FDD1FC6
:10078000CE5FDE4FE881F98186819781A085B185B2
:10079000C296A11DB11D86839783A087B1871F5F75
:1007A000133008F4B9CFDF91CF911F91FF90EF90F4
:1007B00008951F920F920FB60F9211240BB60F924D
:1007C0002F933F934F935F936F937F938F939F9359
:1007D000AF93BF93EF93FF93809182019091830138
:1007E000A0918401B09185010197A109B10980937D
:1007F000820190938301A0938401B0938501892B9A
:100800008A2B8B2B91F40E94850380910801909193
:100810000901A0910A01B0910B018093820190938C
:100820008301A0938401B0938501FF91EF91BF9163
:10083000AF919F918F917F916F915F914F913F9178
:100840002F910F900BBE0F900FBE0F901F90189519
:1008500011B88FEF82B984B915B887B918B88AB9B9
:100860001BB80E94510262E370E080E090E00E94B9
:100870000F020E94E801E5ECF1E081E090E0918355
:1008800080838AEF90E0A0E0B0E082839383A4832A
:10089000B58386839783A087B18789E992E09387A0
:1008A0008287EAEAF1E01182108282E390E0A0E020
:1008B000B0E082839383A483B58386839783A087E4
:1008C000B18728E730E033872287E9EBF1E0118236
:1008D000108282839383A483B58386839783A087C2
:1008E000B18784ED90E093878287FFCF68177907FF
:1008F00068F4FB01DC01E40FF51FA40FB51F02C073
:1009000002900E9241505040D8F708950C948804FC
:10091000FB01DC0102C001900D9241505040D8F71C
:060920000895F894FFCFDA
:100926002020B901C501AA01010000000000000253
:100936000000000067000000000020232020202087
:100946002320202020202320202020202320202098
:1009560020202320202020202023202020002020AB
:100966002020232020202023202020202023202078
:10097600202020232020202020232020202020206B
:1009860023003200000020202020202020202020CC
:100996002020202020200047616D65204F7665725B
:0209A60000004F
:00000001FF
