:100000000C9446000C9465000C9465000C946500FB
:100010000C9465000C9465000C9465000C946500CC
:100020000C9465000C9465000C9465000C946500BC
:100030000C9465000C9486010C9465000C9465008A
:100040000C9465000C9465000C9465000C9465009C
:100050000C9465000C9465000C9465000C9465008C
:100060000C9465000C9465000C9465000C9465007C
:100070000C9465000C9465000C9465000C9465006C
:100080000C9465000C9465000C94650011241FBE4F
:10009000CFEFD0E4DEBFCDBF11E0A0E0B1E0E6E6F7
:1000A000F4E000E00BBF02C007900D92A631B1074B
:1000B000D9F721E0A6E1B1E001C01D92A635B20753
:1000C000E1F70E94D5010C9431020C940000CF930B
:1000D000C82F8A3019F48DE00E9467008091C0001B
:1000E00085FFFCCFC093C60080E090E0CF910895DB
:1000F0008130910531F08230910541F0009769F42B
:100100000AC0029B0AC082E090E007C0029B05C0C3
:1001100081E090E002C081E090E099236CF08230B1
:10012000910524F08230910521F008951092530139
:10013000089520E12093530108958130910559F0ED
:100140001CF4009771F00FC08230910539F08330B4
:10015000910539F008C082E090E005C083E090E0AE
:1001600002C081E090E08230910561F01CF4992397
:100170002CF408958330910549F0089521E02093EF
:100180004F01089522E020934F01089524E0209329
:100190004F0108958130910531F08230910531F0A1
:1001A000009731F403C082E090E002C081E090E06B
:1001B00099236CF08230910524F08230910521F072
:1001C000089510925201089528E020935201089555
:1001D000009749F43091530120914F01232B309126
:1001E0005201232B25B908958BE0809381008DE780
:1001F00090E0909389008093880082E080936F0064
:100200001092850010928400809104019091050164
:10021000A0910601B09107018093160190931701F8
:10022000A0931801B09319018FB780688FBF08950C
:1002300010928100089560930401709305018093EA
:100240000601909307016093160170931701809344
:100250001801909319010895EF92FF921F93CF9385
:10026000DF9310E04AC0C12FD0E0FE01EE0FFF1F68
:10027000EC0FFD1FEE0FFF1FEE0FFF1FE55EFE4FA1
:10028000468157816085718582819381A481B58182
:10029000481759076A077B0778F07F01DF0102845E
:1002A000F385E02D8D919C910995F70191838083D1
:1002B0001682178210861186CE01880F991FFC01C5
:1002C000EC0FFD1FEE0FFF1FEE0FFF1FE55EFE4F51
:1002D000468157816085718580910001909101016F
:1002E000A0910201B0910301840F951FA61FB71FB3
:1002F00086839783A087B1871F5F143008F4B3CF3C
:10030000DF91CF911F91FF90EF9008951F920F9270
:100310000FB60F9211240BB60F922F933F934F936A
:100320005F936F937F938F939F93AF93BF93EF935D
:10033000FF938091160190911701A0911801B0913F
:1003400019010197A109B109809316019093170132
:10035000A0931801B0931901892B8A2B8B2B91F450
:100360000E942C018091040190910501A091060149
:10037000B09107018093160190931701A093180183
:10038000B0931901FF91EF91BF91AF919F918F9120
:100390007F916F915F914F913F912F910F900BBE85
:1003A0000F900FBE0F901F9018958FEF84B915B85E
:1003B00011B882B9EBE1F1E015A214A282E090E05D
:1003C000A0E0B0E086A397A3A0A7B1A782A793A7B8
:1003D000A4A7B5A788E790E097A786A71182108207
:1003E0008CE291E0A0E0B0E082839383A483B583A4
:1003F00086839783A087B1878DE990E09387828772
:100400001586148688EE93E0A0E0B0E08687978793
:10041000A08BB18B828B938BA48BB58B8AEC90E0F5
:10042000978B868B118E108E81E090E0A0E0B0E07B
:10043000828F938FA48FB58F868F978FA0A3B1A340
:1004400088EE90E093A382A3609100017091010176
:1004500080910201909103010E941B010E94F4000F
:06046000FFCFF894FFCF6E
:100466000100000001000000000000020000000082
:0604760067000000000019
:00000001FF
