:100000000C9446000C9465000C9465000C946500FB
:100010000C9465000C9465000C9465000C946500CC
:100020000C9465000C9465000C9465000C946500BC
:100030000C9465000C94A3000C9465000C9465006E
:100040000C9465000C9465000C9465000C9465009C
:100050000C9465000C9465000C9465000C9465008C
:100060000C9465000C9465000C9465000C9465007C
:100070000C9465000C9465000C9465000C9465006C
:100080000C9465000C9465000C94650011241FBE4F
:10009000CFEFD0E4DEBFCDBF11E0A0E0B1E0EAE2F7
:1000A000F8E000E00BBF02C007900D92A233B10749
:1000B000D9F721E0A2E3B1E001C01D92A134B2075B
:1000C000E1F70E9460020C9413040C940000CF939B
:1000D000C82F8A3019F48DE00E9467008091C0001B
:1000E00085FFFCCFC093C60080E090E0CF910895DB
:1000F0008BE0809381008DE790E09093890080935E
:10010000880082E080936F00109285001092840036
:100110008091200190912101A0912201B0912301B1
:100120008093340190933501A0933601B093370149
:100130008FB780688FBF089510928100089581E085
:100140008093380108951F920F920FB60F921124D9
:100150000BB60F922F933F934F935F936F937F93C1
:100160008F939F93AF93BF93EF93FF93809134014D
:1001700090913501A0913601B09137010197A10905
:10018000B1098093340190933501A0933601B09367
:100190003701892B8A2B8B2B91F40E949F00809131
:1001A000200190912101A0912201B091230180931F
:1001B000340190933501A0933601B0933701FF913C
:1001C000EF91BF91AF919F918F917F916F915F91CF
:1001D0004F913F912F910F900BBE0F900FBE0F903C
:1001E0001F90189560932001709321018093220144
:1001F000909323016093340170933501809336010D
:10020000909337010895CF92DF92EF92FF926B01A6
:100210007C016091390170913A0180913B0190918C
:100220003C01A70196010E947F02882309F455C072
:1002300020E030E0A901C701B6010E947F028111D0
:1002400006C0E1E9F0E080818870808305C0E1E9C3
:10025000F0E080818360808328E539E344E75FE351
:10026000C701B6010E947F0288233CF48FEF9FEF05
:10027000909399008093980027C020E034E244EFE7
:1002800056E4C701B6010E94A10318162CF410927F
:1002900099001092980018C020E030E040E053E44C
:1002A000C701B6010E94A6039B01AC0160E074E2A5
:1002B00084EF9AE40E9484020E94F6026150710960
:1002C000709399006093980016BCC0923901D09247
:1002D0003A01E0923B01F0923C01FF90EF90DF90F9
:1002E000CF90089580E4809390008BE080939100FC
:1002F00060E070E0CB010E9403010895109290002D
:1003000010929100089580913201909133010196ED
:100310009093330180933201089734F087E090E0A6
:10032000909333018093320108958091320190912E
:10033000330101979093330180933201992324F480
:100340001092330110923201089580913D019091F5
:100350003E0181309105B9F030F08230910529F1EC
:10036000039799F143C0009B05C010923E01109283
:100370003D013CC000993AC081E090E090933E017D
:1003800080933D0133C0009907C081E090E09093D5
:100390003E0180933D012AC0009B28C083E090E08D
:1003A00090933E0180933D0121C0009907C082E0F7
:1003B00090E090933E0180933D0118C0009B16C0D1
:1003C00010923E0110923D0111C0009B07C083E0D6
:1003D00090E090933E0180933D0108C0009906C0D3
:1003E00082E090E090933E0180933D0180913D0139
:1003F00090913E01009719F0039739F0089560E05D
:1004000070E0CB010E9403010895E0913201F09168
:100410003301EE0FFF1FEE0FFF1FE050FF4F608113
:100420007181828193810E940301089580913F012F
:10043000909140018130910519F118F0029781F1F6
:10044000089501990BC0029B09C00E94830181E0BD
:1004500090E09093400180933F01089502990BC072
:10046000019B09C00E94950182E090E090934001B9
:1004700080933F0108951092400110923F0108952A
:10048000019909C0029B07C081E090E09093400170
:1004900080933F0108951092400110923F0108950A
:1004A000029909C0019B07C082E090E0909340014F
:1004B00080933F0108951092400110923F010895EA
:1004C0008FEF84B915B811B882B962E370E080E0AB
:1004D00090E00E94F2000E94780060E070E0CB01A2
:1004E0000E9403010E9472010E9416020E94A5014F
:1004F000809138018823E1F310923801F5CF0E94F2
:100500002C0308F481E008950E9498020C9467037C
:100510000E94600358F00E94590340F029F45F3FA5
:1005200029F00C94500351110C949B030C94560326
:100530000E94780368F39923B1F3552391F3951B37
:10054000550BBB27AA2762177307840738F09F5FF4
:100550005F4F220F331F441FAA1FA9F335D00E2E61
:100560003AF0E0E832D091505040E695001CCAF7CE
:100570002BD0FE2F29D0660F771F881FBB1F261791
:1005800037074807AB07B0E809F0BB0B802DBF0168
:10059000FF2793585F4F3AF09E3F510578F00C9437
:1005A00050030C949B035F3FE4F3983ED4F386958D
:1005B00077956795B795F7959F5FC9F7880F911D58
:1005C0009695879597F90895E1E0660F771F881F44
:1005D000BB1F621773078407BA0720F0621B730BF7
:1005E000840BBA0BEE1F88F7E09508950E94FD0278
:1005F0006894B1110C949B0308950E94800388F0C5
:100600009F5798F0B92F9927B751B0F0E1F0660FD6
:10061000771F881F991F1AF0BA95C9F714C0B13017
:1006200091F00E949A03B1E008950C949A03672F09
:10063000782F8827B85F39F0B93FCCF38695779546
:100640006795B395D9F73EF490958095709561952F
:100650007F4F8F4F9F4F0895990F0008550FAA0B9A
:10066000E0E8FEEF16161706E807F907C0F01216C5
:100670001306E407F50798F0621B730B840B950BC8
:1006800039F40A2661F0232B242B252B21F408951D
:100690000A2609F4A140A6958FEF811D811D0895BA
:1006A00097F99F6780E870E060E008959FEF80EC25
:1006B000089500240A9416161706180609060895C8
:1006C00000240A9412161306140605060895092E2E
:1006D0000394000C11F4882352F0BB0F40F4BF2B9D
:1006E00011F460FF04C06F5F7F4F8F4F9F4F0895DD
:1006F00057FD9058440F551F59F05F3F71F04795D3
:10070000880F97FB991F61F09F3F79F087950895B7
:10071000121613061406551FF2CF4695F1DF08C0D6
:10072000161617061806991FF1CF869571056105F3
:1007300008940895E894BB2766277727CB0197F99B
:1007400008950E942C0308F48FEF08950E94B903C6
:100750000C9467030E94590338F00E94600320F054
:10076000952311F00C9450030C94560311240C940F
:100770009B030E94780370F3959FC1F3950F50E09F
:10078000551F629FF001729FBB27F00DB11D639F43
:10079000AA27F00DB11DAA1F649F6627B00DA11DE9
:1007A000661F829F2227B00DA11D621F739FB00D8F
:1007B000A11D621F839FA00D611D221F749F3327FF
:1007C000A00D611D231F849F600D211D822F762F98
:1007D0006A2F11249F5750409AF0F1F088234AF075
:1007E000EE0FFF1FBB1F661F771F881F91505040E1
:1007F000A9F79E3F510580F00C9450030C949B0385
:100800005F3FE4F3983ED4F3869577956795B79567
:10081000F795E7959F5FC1F7FE2B880F911D969581
:0A082000879597F90895F894FFCF2B
:10082A00A4D082437BD49243A4D0A443719DAE4307
:10083A000000C4430000DC43A4F0F64300D00244A5
:10084A000100000000000002000000006700000034
:02085A0000009C
:00000001FF
