:100000000C9446000C9465000C9465000C946500FB
:100010000C9465000C9465000C9465000C946500CC
:100020000C9465000C9465000C9465000C946500BC
:100030000C9465000C9465000C9465000C946500AC
:100040000C9465000C9465000C9465000C9465009C
:100050000C9465000C9465000C9465000C9465008C
:100060000C9465000C9465000C9465000C9465007C
:100070000C9465000C9465000C9465000C9465006C
:100080000C9465000C9465000C94650011241FBE4F
:10009000CFEFD0E4DEBFCDBF11E0A0E0B1E0EAE8F1
:1000A000F1E000E00BBF02C007900D92AE30B10747
:1000B000D9F721E0AEE0B1E001C01D92A031B20756
:1000C000E1F70E94B7000C94C3000C940000CF939A
:1000D000C82F8A3051F09091C00095FFFCCFC0939B
:1000E000C60090E080E0CF9108958DE00E94670007
:1000F000F2CF80910E0190910F018230910559F15C
:1001000070F40097C1F081309105D9F4009902C0D4
:1001100082E090E090930F0180930E0112C0833033
:10012000910579F4009902C090E080E090930F016E
:1001300080930E0106C080B1817080930E011092F1
:100140000F0180910E0190910F010197029760F0CD
:1001500081E085B90895009B02C083E090E0909310
:100160000F0180930E01EDCF82E085B9089511B89B
:100170008FEF82B984B915B810920F0110920E0159
:0A0180000E947900FDCFF894FFCF34
:0E018A000000000200000000670000000000FE
:00000001FF
