:100000000C948B000C94AA000C94AA000C94AA00E7
:100010000C94AA000C94AA000C94AA000C94AA00B8
:100020000C94AA000C94AA000C94AA000C94AA00A8
:100030000C94AA000C9433020C94AA000C94AA000D
:100040000C94AA000C94AA000C94AA000C94AA0088
:100050000C94AA000C94AA000C94AA000C94AA0078
:100060000C94AA000C94AA000C94AA000C94AA0068
:100070000C94AA000C94AA000C94AA000C94AA0058
:100080000C94AA000C94AA000C94AA00B102E302FA
:10009000E302E302E302E302E302E302E302E30238
:1000A000E302E302E302E302E302E302E302E30228
:1000B000E302E302E302E302E302E302E302E30218
:1000C000E302E302E302E302E302E302E302E30208
:1000D000E302E002E302E302E302E302E302E302FB
:1000E000DB02E302E302E302E302E302DE02B40224
:1000F000B702BA02BD02C002C302C602C902CC02E4
:10010000E302E302E302E302E302E302E302CF02DB
:10011000D202D502D80211241FBECFEFD0E4DEBF39
:10012000CDBF11E0A0E0B1E0E2EEF5E000E00BBFF2
:1001300002C007900D92A631B107D9F721E0A6E1E0
:10014000B1E001C01D92AA32B207E1F70E9482021B
:100150000C94EF020C940000CF93C82F8A3019F44E
:100160008DE00E94AC008091C00085FFFCCFC09361
:10017000C60080E090E0CF910895442349F021E04B
:1001800030E002C0220F331F6A95E2F7822B0895F8
:1001900021E030E002C0220F331F6A95E2F720957C
:1001A0008223089521E030E002C0220F331F6A95B8
:1001B000E2F78223089540E064E08FEF0E94BD00E3
:1001C00082B9000080B160E080950E94D200811168
:1001D00080C080B161E080950E94D20081117BC017
:1001E00080B162E080950E94D200811176C080B11A
:1001F00063E080950E94D200811171C040E065E00B
:100200008FEF0E94BD0082B9000080B160E0809550
:100210000E94D200811165C080B161E080950E948A
:10022000D200811160C080B162E080950E94D2004E
:1002300081115BC080B163E080950E94D200811182
:1002400056C040E066E08FEF0E94BD0082B900001A
:1002500080B160E080950E94D20081114AC080B1D7
:1002600061E080950E94D200811145C080B162E0BA
:1002700080950E94D200811140C080B163E08095DA
:100280000E94D20081113BC040E067E08FEF0E94E6
:10029000BD0082B9000080B160E080950E94D2006C
:1002A00081112FC080B161E080950E94D200811140
:1002B0002AC080B162E080950E94D200811125C0E1
:1002C00080B163E080950E94D2008823F9F084E435
:1002D000089581E3089584E3089587E308958AE209
:1002E000089582E3089585E3089588E3089580E3FF
:1002F000089583E3089586E3089589E3089583E2EA
:10030000089581E4089582E4089583E40895CF93E5
:10031000DF93EC018130910531F08230910541F09D
:10032000892B31F403C0C2E0D0E002C0C1E0D0E0CC
:10033000C130D10521F0C230D10521F007C01092A3
:10034000290104C00E94DB0080932901CE01DF91C6
:10035000CF9108958BE0809381008DE790E090939A
:1003600089008093880082E080936F00109285005E
:10037000109284008091000190910101A0910201EE
:10038000B09103018093160190931701A093180177
:10039000B09319018FB780688FBF089510928100C4
:1003A000089560930001709301018093020190937E
:1003B00003016093160170931701809318019093C5
:1003C00019010895EF92FF921F93CF93DF9310E0EE
:1003D00041C0C12FD0E0FE01EE0FFF1FEC0FFD1F4B
:1003E000EE0FFF1FEE0FFF1FE55EFE4F46815781A8
:1003F0006085718582819381A481B58148175907F1
:100400006A077B0778F07F01DF010284F385E02D26
:100410008D919C910995F7019183808316821782B3
:1004200010861186CE01880F991FFC01EC0FFD1F6D
:10043000EE0FFF1FEE0FFF1FE55EFE4F86819781D7
:10044000A085B185C296A11DB11D86839783A08723
:10045000B1871F5F112309F4BCCFDF91CF911F91AA
:10046000FF90EF9008951F920F920FB60F921124F4
:100470000BB60F922F933F934F935F936F937F939E
:100480008F939F93AF93BF93EF93FF938091160148
:1004900090911701A0911801B09119010197A1093C
:1004A000B1098093160190931701A0931801B0939E
:1004B0001901892B8A2B8B2B91F40E94E2018091E8
:1004C000000190910101A0910201B091030180937C
:1004D000160190931701A0931801B0931901FF9191
:1004E000EF91BF91AF919F918F917F916F915F91AC
:1004F0004F913F912F910F900BBE0F900FBE0F9019
:100500001F9018958FEF84B915B880EF81B98FE0EF
:1005100082B962E370E080E090E00E94D1010E9425
:10052000AA01EBE1F1E01182108282E390E0A0E009
:10053000B0E082839383A483B58386839783A08767
:10054000B18787E891E093878287E09129018E2F18
:1005500090E085349105B8F5FC01EA5BFF4F0C94FF
:10056000E6028FE185B9F1CF81E085B9EECF82E077
:1005700085B9EBCF83E085B9E8CF84E085B9E5CFD5
:1005800085E085B9E2CF86E085B9DFCF87E085B920
:10059000DCCF88E085B9D9CF89E085B9D6CF8AE0AC
:1005A00085B9D3CF8BE085B9D0CF8CE085B9CDCFDD
:1005B0008DE085B9CACF8EE085B9C7CF15B8C5CF54
:1005C0008FE085B9C2CF8BE185B9BFCFEE0FFF1F9A
:1005D0000024001C0BBE0790F691E02D0994F894BE
:0205E000FFCF4B
:1005E200010000000000000200000000AC0000005A
:0605F200000032000000D1
:00000001FF
