:100000000C9446000C945D000C945D000C945D0013
:100010000C945D000C945D000C945D000C945D00EC
:100020000C945D000C945D000C945D000C945D00DC
:100030000C945D000C945D000C945D000C945D00CC
:100040000C945D000C945D000C945D000C945D00BC
:100050000C945D000C945D000C945D000C945D00AC
:100060000C945D000C945D000C945D000C945D009C
:100070000C945D000C945D000C945D000C945D008C
:100080000C945D000C945D000C945D0011241FBE67
:10009000CFEFD0E4DEBFCDBF11E0A0E0B1E0E6E0FD
:1000A000F1E000E00BBF02C007900D92AE30B10747
:1000B000D9F70E9471000C9481000C940000CF933A
:1000C000C82F8A3051F09091C00095FFFCCFC093AB
:1000D000C60090E080E0CF9108958DE00E945F001F
:1000E000F2CF11B88FEF82B984B915B887B918B8B3
:1000F00090B180B192959F708295807F95B988B9B3
:06010000F7CFF894FFCFD9
:0E01060000000002000000005F00000000008A
:00000001FF
