:100000000C9446000C9465000C9465000C946500FB
:100010000C9465000C9465000C9465000C946500CC
:100020000C9465000C9465000C9465000C946500BC
:100030000C9465000C9465000C9465000C946500AC
:100040000C9465000C9465000C9465000C9465009C
:100050000C9465000C9465000C9465000C9465008C
:100060000C9465000C9465000C9465000C9465007C
:100070000C9465000C9465000C9465000C9465006C
:100080000C9465000C9465000C94650011241FBE4F
:10009000CFEFD0E4DEBFCDBF11E0A0E0B1E0E8E5F6
:1000A000F2E000E00BBF02C007900D92AE30B10746
:1000B000D9F721E0AEE0B1E001C01D92A031B20756
:1000C000E1F70E940B010C942A010C940000CF93DD
:1000D000C82F8A3019F48DE00E9467009091C0000B
:1000E00095FFFCCFC093C60080E090E0CF910895CB
:1000F00020910E0130910F0121303105D1F148F0EE
:100100002230310509F456C02330310509F473C09B
:10011000089500990DC0019B0BC0FC0120812F5F49
:10012000208381E090E090930F0180930E01089569
:10013000009B0DC001990BC0FC0120812150208340
:1001400082E090E090930F0180930E010895009952
:100150000BC0019909C0FC01108283E090E09093EC
:100160000F0180930E01089510920F0110920E015D
:100170000895009909C0019B07C081E090E0909329
:100180000F0180930E010895009B07C0019B05C0DD
:1001900010920F0110920E01089500993BC0019931
:1001A00039C0FC01108283E090E090930F018093AE
:1001B0000E010895019909C0009B07C082E090E0FC
:1001C00090930F0180930E010895019B07C0009B3F
:1001D00005C010920F0110920E01089501991AC0E6
:1001E000009918C0FC01108283E090E090930F0109
:1001F00080930E010895009B02C0019907C083E01F
:1002000090E090930F0180930E01089510920F01DA
:1002100010920E010895CF93DF931F92CDB7DEB7F2
:1002200011B88FEF82B987B918B8198210920F01EF
:1002300010920E01CE0101960E94780089818930CA
:1002400014F089E08983898118160CF0198289815C
:0802500088B9F0CFF894FFCF4C
:0E02580000000002000000006700000000002F
:00000001FF
