:100000000C944D000C946C000C946C000C946C00DF
:100010000C946C000C946C000C946C000C946C00B0
:100020000C946C000C946C000C946C000C946C00A0
:100030000C946C000C94AA000C946C000C946C0052
:100040000C946C000C946C000C946C000C946C0080
:100050000C946C000C946C000C946C000C946C0070
:100060000C946C000C946C000C946C000C946C0060
:100070000C946C000C946C000C946C000C946C0050
:100080000C946C000C946C000C946C0083018A013D
:100090009A01AA01BA01CA01ED0111241FBECFEFD6
:1000A000D0E4DEBFCDBF11E0A0E0B1E0E4E2F5E0D6
:1000B00000E00BBF02C007900D92A432B107D9F740
:1000C00021E0A4E2B1E001C01D92AE32B207E1F737
:1000D0000E9456020C9490020C940000CF93C82FFB
:1000E0008A3019F48DE00E946E009091C00095FF57
:1000F000FCCFC093C60080E090E0CF9108958BE0E4
:10010000809381008DE790E0909389008093880030
:1001100082E080936F00109285001092840080919D
:100120000E0190910F01A0911001B09111018093E7
:10013000250190932601A0932701B09328018FB742
:1001400080688FBF089510928100089581E08093A8
:10015000290108951F920F920FB60F9211240BB62A
:100160000F922F933F934F935F936F937F938F9350
:100170009F93AF93BF93EF93FF938091250190914D
:100180002601A0912701B09128010197A109B10989
:100190008093250190932601A0932701B093280115
:1001A000892B8A2B8B2B91F40E94A60080910E0143
:1001B00090910F01A0911001B09111018093250140
:1001C00090932601A0932701B0932801FF91EF910E
:1001D000BF91AF919F918F917F916F915F914F915F
:1001E0003F912F910F900BBE0F900FBE0F901F905D
:1001F000189560930E0170930F01809310019093F6
:10020000110160932501709326018093270190933B
:100210002801089540E050E00CC000002F5F3F4FE0
:1002200002C020E030E0273063E03607B4F34F5FD0
:100230005F4F48175907ACF308955E9888B95F9AE5
:1002400000005F9882E090E00E940A01089581E03A
:100250000E941D010895813120F481580E941D01E2
:10026000089581550E941D01089584E690E00E9442
:100270000A0188E30E941D0186E00E941D018FE0B3
:100280000E941D0181E00E941D018AE090E00E9411
:100290000A0108955E9A88B95F9A00005F9881E02C
:1002A00090E00E940A010895EF92FF920F931F932E
:1002B000CF93DF93182FEB010E9427010EC001E0BE
:1002C000010F812F0E942B017E018FEFE81AF80A9F
:1002D00088810E944A01102FE70188818111EFCFA8
:1002E000DF91CF911F910F91FF90EF900895E091D2
:1002F0002C01F0912D01E730F10508F07DC0EA5B9B
:10030000FF4F0C94870281E090E090932D01809341
:100310002C0172C0009907C084E090E090932D01F9
:1003200080932C0169C082E090E090932D0180932E
:100330002C0162C0009907C084E090E090932D01E9
:1003400080932C0159C083E090E090932D0180931D
:100350002C0152C0009907C084E090E090932D01D9
:1003600080932C0149C081E090E090932D0180930F
:100370002C0142C0009907C084E090E090932D01C9
:1003800080932C0139C085E090E090932D018093FB
:100390002C0132C000991AC08091240189307CF070
:1003A0001092240162E171E081E00E94540187E033
:1003B0000E942B0180912401805D0E944A0186E009
:1003C00090E090932D0180932C0116C085E090E081
:1003D00090932D0180932C010FC0009907C086E0F7
:1003E00090E090932D0180932C0106C081E090E075
:1003F00090932D0180932C0180912C0190912D01DF
:100400008230910581F040F084309105E1F0A0F058
:10041000059709F43FC0089581E085B910922B013A
:1004200010922A01089582E085B981E090E09093CE
:100430002B0180932A01089584E085B910922B0145
:1004400010922A01089580912A0190912B01019721
:1004500059F4809124018F5F8093240182E090E021
:1004600090932B0180932A0180912A0190912B0176
:10047000892BD9F48091240181508093240118168E
:1004800014F01092240182E090E090932B0180936D
:100490002A0108958091240189303CF00E942701AF
:1004A00069E171E081E00E945401089511B88FEF75
:1004B00082B984B915B88AB91BB887B918B868EC7D
:1004C00070E080E090E00E94F9000E947F000E94AE
:1004D000350162E171E081E00E94540110922D012A
:1004E00010922C010E94770180912401893044F4FC
:1004F00087E00E942B0180912401805D0E944A01C7
:10050000809129018823E1F310922901EBCFEE0FAE
:10051000FF1F0024001C0BBE0790F691E02D0994EC
:04052000F894FFCF7D
:1005240000000002000000006E0000000000010056
:10053400000053636F72653A00596F7520576F6EF0
:040544002121210050
:00000001FF
