:100000000C944D000C946C000C946C000C946C00DF
:100010000C946C000C946C000C946C000C946C00B0
:100020000C946C000C946C000C946C000C946C00A0
:100030000C946C000C9425040C946C000C946C00D3
:100040000C946C000C946C000C946C000C946C0080
:100050000C946C000C946C000C946C000C946C0070
:100060000C946C000C946C000C946C000C946C0060
:100070000C946C000C946C000C946C000C946C0050
:100080000C946C000C946C000C946C002E03C00259
:10009000D3020E0319032603290311241FBECFEF39
:1000A000D0E4DEBFCDBF11E0A0E0B1E0E8E5FAE0CA
:1000B00000E00BBF02C007900D92AC3CB107D9F72E
:1000C00022E0ACECB1E001C01D92A931B207E1F72A
:1000D0000E9474040C942A050C940000CF93C82F3E
:1000E0008A3019F48DE00E946E008091C00085FF77
:1000F000FCCFC093C60080E090E0CF9108950097B8
:1001000021F08130910559F014C0019912C020915D
:10011000F0013091F1012130310549F40AC020B1DC
:10012000269531E02327822F817090E002C081E084
:1001300090E0009721F08130910521F00895109210
:100140000A02089521E020930A0220930B020895E9
:100150008BE0809381008DE790E0909389008093FD
:10016000880082E080936F001092850010928400D6
:100170008091640190916501A0916601B091670141
:100180008093CC019093CD01A093CE01B093CF0189
:100190008FB780688FBF0895109281000895609393
:1001A0006401709365018093660190936701609389
:1001B000CC017093CD018093CE019093CF0108952F
:1001C00084B1876084B9089585B1826085B985B1AD
:1001D0008D7F85B9089585B1846085B981E0982FB8
:1001E0009A95F1F795B19B7F95B98A95F1F70895A6
:1001F000CF93DF93D82FC0E00DC0DD2324F485B169
:10020000816085B903C085B18E7F85B90E94E40005
:10021000DD0FCF5FC83088F30E94EB00DF91CF91F4
:10022000089580E005C0E0E0F0E03197F1F78F5FDE
:100230008233C8F3089540E050E00CC000002F5F07
:100240003F4F02C020E030E0273063E03607B4F3D0
:100250004F5F5F4F48175907ACF308959BB19F7BE1
:100260009BB90E94F8008BB180688BB900008BB1FC
:100270008F778BB982E090E00E941B01089581E0A6
:100280000E942E010895813120F481580E942E0190
:10029000089581550E942E01089584E690E00E9401
:1002A0001B0188E30E942E0186E00E942E018FE050
:1002B0000E942E0181E00E942E018AE090E00E94BF
:1002C0001B0108959BB190649BB90E94F8008BB10B
:1002D00080688BB900008BB18F778BB981E090E09B
:1002E0000E941B010895FF920F931F93CF93DF93FA
:1002F000EB010DC0FF24F394F80E0E9443018E0120
:100300000F5F1F4F88810E9462018F2DE801988145
:100310009111F0CFDF91CF911F910F91FF90089530
:100320000F931F93CF93883098F48B0190E0089639
:10033000880F880F880F0E942E01C0E007C0F801C7
:10034000EC0FF11D80810E946201CF5FC830B8F3CD
:10035000CF911F910F9108951F93CF93DF93D82FC3
:100360009DEC699F912D112496959695969510E395
:10037000190F990F892F880F880F980F691BC0E3F9
:10038000C60F8D2F0E944301812F0E94620181E0E0
:100390008D0F0E9443018C2F0E946201DF91CF914B
:1003A0001F910895CF93DF93EC01009719F0019707
:1003B00081F01FC08091180281111BC0029919C0E1
:1003C00081E00E94430180E20E946201C1E0D0E02E
:1003D00010C0029B0EC081E10E94430180E20E9496
:1003E000620181E00E94430180E00E946201C0E05E
:1003F000D0E0209721F0C130D10531F011C010922A
:10040000F1011092F0010CC081E090E09093F101B5
:100410008093F00181E10E94430182E00E94620129
:10042000CE01DF91CF9108950F931F93CF93DF9368
:100430008C018130910561F08230910581F0892B2A
:10044000C1F480910A028823A1F001E010E011C0FC
:1004500080910A02882341F002E010E00AC08091F6
:100460000A02811106C003C000E010E002C000E0F3
:1004700010E00130110559F10230110561F101154B
:10048000110509F047C080911802811143C04EE068
:1004900050E06BE271E08CE291E00E94F50480E2B2
:1004A00080932B01C0E0D0E00BC08C2F8E5F0E94A8
:1004B0004301FE01E55DFE4F80810E9462012196AD
:1004C00080913B0190E0C817D9077CF323C08DE2EF
:1004D00080932B011FC04EE050E06BE271E08CE294
:1004E00091E00E94F50480E280932B01C0E0D0E00F
:1004F0000BC08C2F8E5F0E944301FE01E55DFE4F15
:1005000080810E946201219680913B0190E0C81792
:10051000D9077CF3C801DF91CF911F910F91089506
:10052000CF93C82F81E00E9443018C2F0E9462016B
:10053000CF9108950F931F93DC0180E007C0FD0168
:10054000E80FF11D9081903259F48F5F082F10E071
:1005500020E030E0041715072607370780F380E016
:100560001F910F9108950F931F93CF938C018730A4
:10057000910508F078C0FC01EA5BFF4F0C94EC0495
:1005800085E090E00E9410058F3F19F41092E2017F
:1005900002C08093E2016AE771E081E00E9473018A
:1005A00003E010E060C0039902C005E010E0809114
:1005B000D201813009F057C08091F0019091F10192
:1005C000892B09F050C00E943F0168E971E081E089
:1005D0000E9473016091EF018091E201861788F417
:1005E00085E090E00E94180562EA71E081E10E94D6
:1005F00073016091EF018DE10E94AC0106E010E013
:1006000032C06EEA71E081E10E9473016091E20103
:100610008DE10E94AC0106E010E025C0039905C001
:100620001092180204E010E01EC081E080931802CE
:100630001AC0039B18C00E943F0181E00E94430141
:1006400080E00E94620102E010E00DC0039B0BC03D
:1006500008C0039908C005E010E005C001E010E003
:1006600002C001E010E002301105F9F024F401307D
:10067000110551F091C00330110509F484C0063012
:10068000110509F486C088C01092D1011092EF01C3
:1006900080E1EBEBF1E0A2EDB1E001900D928A95E3
:1006A000E1F781E08093180277C0109218024FE0C2
:1006B00050E060E070E082ED91E00E949A0290913B
:1006C0000B029923A1F090E0FC01EE52FE4F208135
:1006D000213069F410920B022091EF012F5F2093DB
:1006E000EF01FC01EE52FE4F20E2208302C0109287
:1006F0000B028091D201843069F48091F0019091D5
:10070000F101892B39F48091EF01882319F0815090
:100710008093EF014FE050E060E070E082ED91E007
:100720000E949A0280933B01C0E00CC082E08C0FD3
:100730000E944301EC2FF0E0EE52FE4F80810E94B8
:100740006201CF5FCF3090F3C091D101C33298F4F2
:100750004EE050E063ED71E082ED91E00E94F5041F
:10076000EC2FF0E0E85FFE4F80818093E001CF5FE7
:10077000C093D10102C01092D1016091EF018FE1CD
:100780000E94AC0109C081E08093180210923B01E5
:1007900003C081E080931802C801CF911F910F918F
:1007A0000895EF92FF921F93CF93DF9310E044C020
:1007B000C12FD0E0FE01EE0FFF1FE050FF4FE080A1
:1007C000F180D70116964D915D916D917C911997AD
:1007D00012968D919D910D90BC91A02D48175907AF
:1007E0006A077B07B8F0D7011A96ED91FC911B9729
:1007F0008D919C910995F70191838083FE01EE0F05
:10080000FF1FE050FF4F0190F081E02D168217820C
:1008100010861186CC0FDD1FC050DF4FE881F981B3
:1008200086819781A085B185C296A11DB11D868361
:100830009783A087B1871F5F143008F4B9CFDF9189
:10084000CF911F91FF90EF9008951F920F920FB6D6
:100850000F9211240BB60F922F933F934F935F93F8
:100860006F937F938F939F93AF93BF93EF93FF9378
:100870008091CC019091CD01A091CE01B091CF019A
:100880000197A109B1098093CC019093CD01A09368
:10089000CE01B093CF01892B8A2B8B2B91F40E9430
:1008A000D1038091640190916501A0916601B0919E
:1008B00067018093CC019093CD01A093CE01B093BA
:1008C000CF01FF91EF91BF91AF919F918F917F9158
:1008D0006F915F914F913F912F910F900BBE0F90B1
:1008E0000FBE0F901F90189511B88FEF82B98AB97B
:1008F0001BB80E94E0000E944D0162E370E080E0BE
:1009000090E00E94CF000E94A8006CE571E080E0BA
:100910000E94900164E571E081E00E9490016CE426
:1009200071E082E00E94900164E471E084E00E9442
:10093000900181E00E94430180E00E946201EEEF9D
:10094000F1E01182108282E390E0A0E0B0E08283C7
:100950009383A483B58386839783A087B18722ED91
:1009600031E033872287E3EEF1E011821082828347
:100970009383A483B58386839783A087B1878FE70A
:1009800090E093878287E2EFF1E01182108284E6A3
:1009900090E0A0E0B0E082839383A483B583868354
:1009A0009783A087B18784E192E093878287ECE008
:1009B000F2E0118210828AEF90E0A0E0B0E0828342
:1009C0009383A483B58386839783A087B18783EBC2
:1009D00092E093878287FFCFEE0FFF1F0024001C59
:1009E0000BBE0790F691E02D09946817790768F41B
:1009F000FB01DC01E40FF51FA40FB51F02C002903C
:100A00000E9241505040D8F708950C940705FB0111
:100A1000DC0102C001900D9241505040D8F708957A
:100A2000F999FECF92BD81BDF89A992780B50895B6
:100A3000262FF999FECF92BD81BDF89A019700B497
:100A4000021639F01FBA20BD0FB6F894FA9AF99A37
:080A50000FBE0895F894FFCFDA
:100A5800FE01E301F2010C022020012020202020C9
:100A6800012020202004202020010120202004042F
:100A780020202020010420200120042020202020E4
:100A880020202020202020202020000F050000000A
:100A9800320000000E11110E04040A19000E111183
:100AA8000A040719110A0E11110E040A0E11110E6B
:100AB80007040A1301000000000000020000000003
:100AC8006E0000000000320000004D6F6E73746508
:100AD800722053686F6F746572202020507265739E
:100AE800732053746172740047616D65204F766599
:100AF80072004E65772053636F72653A200048692B
:100B080067682053636F72653A20002020202020F8
:0C0B180020202020202020202020000091
:00000001FF
