:100000000C9446000C9465000C9465000C946500FB
:100010000C9465000C9465000C9465000C946500CC
:100020000C9465000C9465000C9465000C946500BC
:100030000C9465000C941E040C9465000C946500EF
:100040000C9465000C9465000C9465000C9465009C
:100050000C9465000C9465000C9465000C9465008C
:100060000C9465000C9465000C9465000C9465007C
:100070000C9465000C9465000C9465000C9465006C
:100080000C9465000C9465000C94650011241FBE4F
:10009000CFEFD0E4DEBFCDBF11E0A0E0B1E0E4E0FF
:1000A000FAE000E00BBF02C007900D92A43AB1073E
:1000B000D9F721E0A4EAB1E001C01D92A63FB20742
:1000C000E1F70E946D040C9400050C940000CF939E
:1000D000C82F8A3019F48DE00E9467008091C0001B
:1000E00085FFFCCFC093C60080E090E0CF910895DB
:1000F000009721F08130910559F014C0019912C088
:100100002091CB013091CC012130310549F40AC056
:1001100020B1269531E02327822F817090E002C024
:1001200081E090E0009721F08130910521F0089561
:100130001092E501089521E02093E5012093E60166
:1001400008958BE0809381008DE790E09093890083
:100150008093880082E080936F0010928500109257
:1001600084008091640190916501A0916601B09135
:1001700067018093A4019093A501A093A601B09379
:10018000A7018FB780688FBF0895109281000895EE
:100190006093640170936501809366019093670199
:1001A0006093A4017093A5018093A6019093A70189
:1001B000089540E050E00CC000002F5F3F4F02C0A8
:1001C00020E030E0273063E03607B4F34F5F5F4F45
:1001D00048175907ACF308959BB19F7B9BB988B929
:1001E0008BB180688BB900008BB18F778BB982E0BF
:1001F00090E00E94D900089581E00E94EC000895EB
:10020000813120F481580E94EC00089581550E94AC
:10021000EC00089584E690E00E94D90088E30E94F3
:10022000EC0086E00E94EC008FE00E94EC0081E090
:100230000E94EC008AE090E00E94D90008959BB1F2
:1002400090649BB988B98BB180688BB900008BB181
:100250008F778BB981E090E00E94D9000895EF92EA
:10026000FF920F931F93CF93DF93182FEB010E9400
:10027000FC000EC001E0010F812F0E9400017E01F1
:100280008FEFE81AF80A88810E941F01102FE701FA
:1002900088818111EFCFDF91CF911F910F91FF9056
:1002A000EF9008950F931F93CF93883098F48B01AC
:1002B00090E00896880F880F880F0E94EC00C0E03D
:1002C00007C0F801EC0FF11D80810E941F01CF5F74
:1002D000C830B8F3CF911F910F9108951F93CF931A
:1002E000DF93D82F9DEC699F912D112496959695BB
:1002F000969510E3190F990F892F880F880F980F83
:10030000691BC0E3C60F8D2F0E940001812F0E9440
:100310001F0181E08D0F0E9400018C2F0E941F01A0
:10032000DF91CF911F9108950F931F93CF93DF9388
:100330008C018130910561F08230910581F0892B2B
:10034000C1F48091E5018823A1F001E010E011C023
:100350008091E501882341F002E010E00AC080911D
:10036000E501811106C003C000E010E002C000E01A
:1003700010E00130110559F10230110561F101154C
:10038000110509F047C08091F501811143C04EE08D
:1003900050E06BE271E08CE291E00E94E50480E2C3
:1003A00080932B01C0E0D0E00BC08C2F8E5F0E94A9
:1003B0000001FE01E55DFE4F80810E941F01219634
:1003C00080913B0190E0C817D9077CF323C08DE2F0
:1003D00080932B011FC04EE050E06BE271E08CE295
:1003E00091E00E94E50480E280932B01C0E0D0E020
:1003F0000BC08C2F8E5F0E940001FE01E55DFE4F59
:1004000080810E941F01219680913B0190E0C817D6
:10041000D9077CF3C801DF91CF911F910F91089507
:10042000CF93C82F81E00E9400018C2F0E941F01F2
:10043000CF910895CF93DF93EC0181309105F9F0CE
:100440001CF4892B39F047C082309105F9F00397ED
:1004500021F141C08091F50181113DC0049902C094
:1004600002992EC0049B37C0029935C081E00E94DA
:10047000000180E20E941F01C3E0D0E02CC004997B
:1004800022C0029923C0C0E0D0E025C0049921C059
:10049000029921C0C0E0D0E01EC0029902C00499B8
:1004A0001AC081E10E94000180E20E941F0181E0E8
:1004B0000E94000180E00E941F01C0E0D0E00BC05C
:1004C000C1E0D0E008C0C0E0D0E005C0C2E0D0E0AC
:1004D00002C0C0E0D0E0C130D105E9F01CF42097A3
:1004E00049F06DC0C230D10521F1C330D10509F406
:1004F00056C065C01092BA011092BB011092BC01A7
:100500001092BD011092E8011092E7011092CC0107
:100510001092CB0154C081E090E09093E801809369
:10052000E7011092CC011092CB0180E00E941002F2
:1005300046C081E090E09093E8018093E70110923B
:10054000CC011092CB018091BA019091BB01A09196
:10055000BC01B091BD010196A11DB11D8093BA01EE
:100560009093BB01A093BC01B093BD0140913C01AD
:1005700050913D0160913E0170913F0184179507B4
:10058000A607B707E1F41092BA011092BB011092CE
:10059000BC011092BD0180E00E94100210C01092B8
:1005A000E8011092E70181E090E09093CC01809304
:1005B000CB0181E10E94000182E00E941F01CE0177
:1005C000DF91CF9108950F931F93DC0180E007C066
:1005D000FD01E80FF11D9081903259F48F5F082FD3
:1005E00010E020E030E0041715072607370780F3F6
:1005F00080E01F910F9108950F931F93CF938C016B
:1006000082309105A1F02CF4009771F1019739F037
:100610002DC08330910581F00497C9F027C06AE7A7
:1006200071E085E00E942F0103E010E01FC00399F4
:100630001DC001E010E01AC0039905C01092F50139
:1006400004E010E013C081E08093F5010FC0039B2C
:100650000DC00E94FC0081E00E94000180E00E9429
:100660001F0102E010E002C001E010E002301105BD
:10067000C9F00330110509F483C00130110509F0F8
:1006800084C01092B9011092CA0180E1E4E9F1E05E
:10069000A9EAB1E001900D928A95E1F781E080939B
:1006A000F50173C01092F5014FE050E060E070E09A
:1006B00089EA91E00E94E3029091E6019923A1F07A
:1006C00090E0FC01E755FE4F2081213069F4109243
:1006D000E6012091CA012F5F2093CA01FC01E75572
:1006E000FE4F20E2208302C01092E6018091A90112
:1006F000843069F48091CB019091CC01892B39F43D
:100700008091CA01882319F081508093CA014FE07B
:1007100050E060E070E089EA91E00E94E30280939B
:100720003B01C0E00CC082E08C0F0E940001EC2F66
:10073000F0E0E755FE4F80810E941F01CF5FCF3070
:1007400090F3C091B901C33298F44EE050E06AEAE8
:1007500071E089EA91E00E94E504EC2FF0E0E85FA7
:10076000FE4F80818093B701CF5FC093B90102C073
:100770001092B9016091CA018FE10E946E0105C01B
:1007800081E08093F50110923B01C801CF911F9148
:100790000F910895EF92FF921F93CF93DF9310E094
:1007A00044C0C12FD0E0FE01EE0FFF1FE050FF4F0D
:1007B000E080F180D70116964D915D916D917C910D
:1007C000199712968D919D910D90BC91A02D48176F
:1007D00059076A077B07B8F0D7011A96ED91FC918B
:1007E0001B978D919C910995F70191838083FE0160
:1007F000EE0FFF1FE050FF4F0190F081E02D1682B9
:10080000178210861186CC0FDD1FC050DF4FE881A4
:10081000F98186819781A085B185C296A11DB11D00
:1008200086839783A087B1871F5F143008F4B9CF00
:10083000DF91CF911F91FF90EF9008951F920F923B
:100840000FB60F9211240BB60F922F933F934F9335
:100850005F936F937F938F939F93AF93BF93EF9328
:10086000FF938091A4019091A501A091A601B09160
:10087000A7010197A109B1098093A4019093A50153
:10088000A093A601B093A701892B8A2B8B2B91F4FF
:100890000E94CA038091640190916501A091660154
:1008A000B09167018093A4019093A501A093A60144
:1008B000B093A701FF91EF91BF91AF919F918F915D
:1008C0007F916F915F914F913F912F910F900BBE50
:1008D0000F900FBE0F901F90189511B88FEF82B92F
:1008E0008AB91BB887B918B80E940A0162E370E0A0
:1008F00080E090E00E94C8000E94A1006CE571E0D9
:1009000080E00E94520164E571E081E00E945201A2
:100910006CE471E082E00E94520164E471E084E0E2
:100920000E94520181E00E94000180E00E941F01AC
:10093000E9EDF1E01182108282E390E0A0E0B0E006
:1009400082839383A483B58386839783A087B187AB
:100950002AE132E033872287EEEBF1E01182108248
:1009600082839383A483B58386839783A087B1878B
:1009700088E790E093878287EDECF1E011821082A6
:1009800084E690E0A0E0B0E082839383A483B58303
:1009900086839783A087B18784E991E093878287D4
:1009A000E9EEF1E0118210828AEF90E0A0E0B0E081
:1009B00082839383A483B58386839783A087B1873B
:1009C0008CEF92E093878287FFCF6817790768F4EE
:1009D000FB01DC01E40FF51FA40FB51F02C002905C
:1009E0000E9241505040D8F708950C94F704FB0143
:1009F000DC0102C001900D9241505040D8F708959B
:040A0000F894FFCF98
:100A0400D901BE01CD01E9012020012020202020B0
:100A14000120202020042020200101202020040483
:100A24002020202001042020012004202020202038
:100A340020202020202020202020000F050000005E
:100A4400320000000E11110E04040A19000E1111D7
:100A54000A040719110A0E11110E040A0E11110EBF
:100A640007040A1301000000000000020000000057
:100A7400670000000000320000004D6F6E73746563
:100A8400722020202020202050726573732053741C
:100A9400617274002020202020202020202020208B
:040AA40020202000EE
:00000001FF
